{
  "_format": "hh-sol-artifact-1",
  "contractName": "MyEpicGame",
  "sourceName": "contracts/MyEpicGame.sol",
  "abi": [
    {
      "inputs": [
        {
          "internalType": "string[]",
          "name": "characterNames",
          "type": "string[]"
        },
        {
          "internalType": "string[]",
          "name": "characterImageURIs",
          "type": "string[]"
        },
        {
          "internalType": "uint256[]",
          "name": "characterHp",
          "type": "uint256[]"
        },
        {
          "internalType": "uint256[]",
          "name": "characterAttackDmg",
          "type": "uint256[]"
        },
        {
          "internalType": "string",
          "name": "bossName",
          "type": "string"
        },
        {
          "internalType": "string",
          "name": "bossImageURI",
          "type": "string"
        },
        {
          "internalType": "uint256",
          "name": "bossHp",
          "type": "uint256"
        },
        {
          "internalType": "uint256",
          "name": "bossAttackDamage",
          "type": "uint256"
        }
      ],
      "stateMutability": "nonpayable",
      "type": "constructor"
    },
    {
      "anonymous": false,
      "inputs": [
        {
          "indexed": true,
          "internalType": "address",
          "name": "owner",
          "type": "address"
        },
        {
          "indexed": true,
          "internalType": "address",
          "name": "approved",
          "type": "address"
        },
        {
          "indexed": true,
          "internalType": "uint256",
          "name": "tokenId",
          "type": "uint256"
        }
      ],
      "name": "Approval",
      "type": "event"
    },
    {
      "anonymous": false,
      "inputs": [
        {
          "indexed": true,
          "internalType": "address",
          "name": "owner",
          "type": "address"
        },
        {
          "indexed": true,
          "internalType": "address",
          "name": "operator",
          "type": "address"
        },
        {
          "indexed": false,
          "internalType": "bool",
          "name": "approved",
          "type": "bool"
        }
      ],
      "name": "ApprovalForAll",
      "type": "event"
    },
    {
      "anonymous": false,
      "inputs": [
        {
          "indexed": false,
          "internalType": "uint256",
          "name": "newBossHp",
          "type": "uint256"
        },
        {
          "indexed": false,
          "internalType": "uint256",
          "name": "newPlayerHp",
          "type": "uint256"
        }
      ],
      "name": "AttackComplete",
      "type": "event"
    },
    {
      "anonymous": false,
      "inputs": [
        {
          "indexed": false,
          "internalType": "address",
          "name": "sender",
          "type": "address"
        },
        {
          "indexed": false,
          "internalType": "uint256",
          "name": "tokenId",
          "type": "uint256"
        },
        {
          "indexed": false,
          "internalType": "uint256",
          "name": "characterIndex",
          "type": "uint256"
        }
      ],
      "name": "CharacterNFTMinted",
      "type": "event"
    },
    {
      "anonymous": false,
      "inputs": [
        {
          "indexed": true,
          "internalType": "address",
          "name": "from",
          "type": "address"
        },
        {
          "indexed": true,
          "internalType": "address",
          "name": "to",
          "type": "address"
        },
        {
          "indexed": true,
          "internalType": "uint256",
          "name": "tokenId",
          "type": "uint256"
        }
      ],
      "name": "Transfer",
      "type": "event"
    },
    {
      "inputs": [
        {
          "internalType": "address",
          "name": "to",
          "type": "address"
        },
        {
          "internalType": "uint256",
          "name": "tokenId",
          "type": "uint256"
        }
      ],
      "name": "approve",
      "outputs": [],
      "stateMutability": "nonpayable",
      "type": "function"
    },
    {
      "inputs": [],
      "name": "attackBoss",
      "outputs": [],
      "stateMutability": "nonpayable",
      "type": "function"
    },
    {
      "inputs": [
        {
          "internalType": "address",
          "name": "owner",
          "type": "address"
        }
      ],
      "name": "balanceOf",
      "outputs": [
        {
          "internalType": "uint256",
          "name": "",
          "type": "uint256"
        }
      ],
      "stateMutability": "view",
      "type": "function"
    },
    {
      "inputs": [],
      "name": "bigBoss",
      "outputs": [
        {
          "internalType": "string",
          "name": "name",
          "type": "string"
        },
        {
          "internalType": "string",
          "name": "imageURI",
          "type": "string"
        },
        {
          "internalType": "uint256",
          "name": "hp",
          "type": "uint256"
        },
        {
          "internalType": "uint256",
          "name": "maxHp",
          "type": "uint256"
        },
        {
          "internalType": "uint256",
          "name": "attackDamage",
          "type": "uint256"
        }
      ],
      "stateMutability": "view",
      "type": "function"
    },
    {
      "inputs": [],
      "name": "checkIfUserHasNFT",
      "outputs": [
        {
          "components": [
            {
              "internalType": "uint256",
              "name": "characterIndex",
              "type": "uint256"
            },
            {
              "internalType": "string",
              "name": "name",
              "type": "string"
            },
            {
              "internalType": "string",
              "name": "imageURI",
              "type": "string"
            },
            {
              "internalType": "uint256",
              "name": "hp",
              "type": "uint256"
            },
            {
              "internalType": "uint256",
              "name": "maxHp",
              "type": "uint256"
            },
            {
              "internalType": "uint256",
              "name": "attackDamage",
              "type": "uint256"
            }
          ],
          "internalType": "struct MyEpicGame.CharacterAttributes",
          "name": "",
          "type": "tuple"
        }
      ],
      "stateMutability": "view",
      "type": "function"
    },
    {
      "inputs": [],
      "name": "getAllDefaultCharacters",
      "outputs": [
        {
          "components": [
            {
              "internalType": "uint256",
              "name": "characterIndex",
              "type": "uint256"
            },
            {
              "internalType": "string",
              "name": "name",
              "type": "string"
            },
            {
              "internalType": "string",
              "name": "imageURI",
              "type": "string"
            },
            {
              "internalType": "uint256",
              "name": "hp",
              "type": "uint256"
            },
            {
              "internalType": "uint256",
              "name": "maxHp",
              "type": "uint256"
            },
            {
              "internalType": "uint256",
              "name": "attackDamage",
              "type": "uint256"
            }
          ],
          "internalType": "struct MyEpicGame.CharacterAttributes[]",
          "name": "",
          "type": "tuple[]"
        }
      ],
      "stateMutability": "view",
      "type": "function"
    },
    {
      "inputs": [],
      "name": "getAllPlayers",
      "outputs": [
        {
          "components": [
            {
              "internalType": "uint256",
              "name": "characterIndex",
              "type": "uint256"
            },
            {
              "internalType": "string",
              "name": "name",
              "type": "string"
            },
            {
              "internalType": "string",
              "name": "imageURI",
              "type": "string"
            },
            {
              "internalType": "uint256",
              "name": "hp",
              "type": "uint256"
            },
            {
              "internalType": "uint256",
              "name": "maxHp",
              "type": "uint256"
            },
            {
              "internalType": "uint256",
              "name": "attackDamage",
              "type": "uint256"
            }
          ],
          "internalType": "struct MyEpicGame.CharacterAttributes[]",
          "name": "",
          "type": "tuple[]"
        }
      ],
      "stateMutability": "view",
      "type": "function"
    },
    {
      "inputs": [
        {
          "internalType": "uint256",
          "name": "tokenId",
          "type": "uint256"
        }
      ],
      "name": "getApproved",
      "outputs": [
        {
          "internalType": "address",
          "name": "",
          "type": "address"
        }
      ],
      "stateMutability": "view",
      "type": "function"
    },
    {
      "inputs": [],
      "name": "getBigBoss",
      "outputs": [
        {
          "components": [
            {
              "internalType": "string",
              "name": "name",
              "type": "string"
            },
            {
              "internalType": "string",
              "name": "imageURI",
              "type": "string"
            },
            {
              "internalType": "uint256",
              "name": "hp",
              "type": "uint256"
            },
            {
              "internalType": "uint256",
              "name": "maxHp",
              "type": "uint256"
            },
            {
              "internalType": "uint256",
              "name": "attackDamage",
              "type": "uint256"
            }
          ],
          "internalType": "struct MyEpicGame.BigBoss",
          "name": "",
          "type": "tuple"
        }
      ],
      "stateMutability": "view",
      "type": "function"
    },
    {
      "inputs": [
        {
          "internalType": "address",
          "name": "owner",
          "type": "address"
        },
        {
          "internalType": "address",
          "name": "operator",
          "type": "address"
        }
      ],
      "name": "isApprovedForAll",
      "outputs": [
        {
          "internalType": "bool",
          "name": "",
          "type": "bool"
        }
      ],
      "stateMutability": "view",
      "type": "function"
    },
    {
      "inputs": [
        {
          "internalType": "uint256",
          "name": "_characterIndex",
          "type": "uint256"
        }
      ],
      "name": "mintCharacterNFT",
      "outputs": [],
      "stateMutability": "nonpayable",
      "type": "function"
    },
    {
      "inputs": [],
      "name": "name",
      "outputs": [
        {
          "internalType": "string",
          "name": "",
          "type": "string"
        }
      ],
      "stateMutability": "view",
      "type": "function"
    },
    {
      "inputs": [
        {
          "internalType": "uint256",
          "name": "",
          "type": "uint256"
        }
      ],
      "name": "nftHolderAttributes",
      "outputs": [
        {
          "internalType": "uint256",
          "name": "characterIndex",
          "type": "uint256"
        },
        {
          "internalType": "string",
          "name": "name",
          "type": "string"
        },
        {
          "internalType": "string",
          "name": "imageURI",
          "type": "string"
        },
        {
          "internalType": "uint256",
          "name": "hp",
          "type": "uint256"
        },
        {
          "internalType": "uint256",
          "name": "maxHp",
          "type": "uint256"
        },
        {
          "internalType": "uint256",
          "name": "attackDamage",
          "type": "uint256"
        }
      ],
      "stateMutability": "view",
      "type": "function"
    },
    {
      "inputs": [
        {
          "internalType": "address",
          "name": "",
          "type": "address"
        }
      ],
      "name": "nftHolders",
      "outputs": [
        {
          "internalType": "uint256",
          "name": "",
          "type": "uint256"
        }
      ],
      "stateMutability": "view",
      "type": "function"
    },
    {
      "inputs": [
        {
          "internalType": "uint256",
          "name": "tokenId",
          "type": "uint256"
        }
      ],
      "name": "ownerOf",
      "outputs": [
        {
          "internalType": "address",
          "name": "",
          "type": "address"
        }
      ],
      "stateMutability": "view",
      "type": "function"
    },
    {
      "inputs": [
        {
          "internalType": "address",
          "name": "from",
          "type": "address"
        },
        {
          "internalType": "address",
          "name": "to",
          "type": "address"
        },
        {
          "internalType": "uint256",
          "name": "tokenId",
          "type": "uint256"
        }
      ],
      "name": "safeTransferFrom",
      "outputs": [],
      "stateMutability": "nonpayable",
      "type": "function"
    },
    {
      "inputs": [
        {
          "internalType": "address",
          "name": "from",
          "type": "address"
        },
        {
          "internalType": "address",
          "name": "to",
          "type": "address"
        },
        {
          "internalType": "uint256",
          "name": "tokenId",
          "type": "uint256"
        },
        {
          "internalType": "bytes",
          "name": "_data",
          "type": "bytes"
        }
      ],
      "name": "safeTransferFrom",
      "outputs": [],
      "stateMutability": "nonpayable",
      "type": "function"
    },
    {
      "inputs": [
        {
          "internalType": "address",
          "name": "operator",
          "type": "address"
        },
        {
          "internalType": "bool",
          "name": "approved",
          "type": "bool"
        }
      ],
      "name": "setApprovalForAll",
      "outputs": [],
      "stateMutability": "nonpayable",
      "type": "function"
    },
    {
      "inputs": [
        {
          "internalType": "bytes4",
          "name": "interfaceId",
          "type": "bytes4"
        }
      ],
      "name": "supportsInterface",
      "outputs": [
        {
          "internalType": "bool",
          "name": "",
          "type": "bool"
        }
      ],
      "stateMutability": "view",
      "type": "function"
    },
    {
      "inputs": [],
      "name": "symbol",
      "outputs": [
        {
          "internalType": "string",
          "name": "",
          "type": "string"
        }
      ],
      "stateMutability": "view",
      "type": "function"
    },
    {
      "inputs": [
        {
          "internalType": "uint256",
          "name": "_tokenId",
          "type": "uint256"
        }
      ],
      "name": "tokenURI",
      "outputs": [
        {
          "internalType": "string",
          "name": "",
          "type": "string"
        }
      ],
      "stateMutability": "view",
      "type": "function"
    },
    {
      "inputs": [
        {
          "internalType": "address",
          "name": "from",
          "type": "address"
        },
        {
          "internalType": "address",
          "name": "to",
          "type": "address"
        },
        {
          "internalType": "uint256",
          "name": "tokenId",
          "type": "uint256"
        }
      ],
      "name": "transferFrom",
      "outputs": [],
      "stateMutability": "nonpayable",
      "type": "function"
    }
  ],
  "bytecode": "0x60806040523480156200001157600080fd5b5060405162005bc738038062005bc7833981810160405281019062000037919062000a85565b6040518060400160405280600781526020017f4861636b657273000000000000000000000000000000000000000000000000008152506040518060400160405280600481526020017f4841434b000000000000000000000000000000000000000000000000000000008152508160009080519060200190620000bb929190620007ed565b508060019080519060200190620000d4929190620007ed565b5050506040518060a0016040528085815260200184815260200183815260200183815260200182815250600a60008201518160000190805190602001906200011e929190620007ed565b5060208201518160010190805190602001906200013d929190620007ed565b50604082015181600201556060820151816003015560808201518160040155905050620002c06040518060600160405280602a815260200162005b9d602a9139600a60000180546200018f9062000e08565b80601f0160208091040260200160405190810160405280929190818152602001828054620001bd9062000e08565b80156200020e5780601f10620001e2576101008083540402835291602001916200020e565b820191906000526020600020905b815481529060010190602001808311620001f057829003601f168201915b5050505050600a60020154600a60010180546200022b9062000e08565b80601f0160208091040260200160405190810160405280929190818152602001828054620002599062000e08565b8015620002aa5780601f106200027e57610100808354040283529160200191620002aa565b820191906000526020600020905b8154815290600101906020018083116200028c57829003601f168201915b50505050506200070260201b62001f0a1760201c565b60005b8851811015620006dc5760076040518060c001604052808381526020018b84815181106200031a577f4e487b7100000000000000000000000000000000000000000000000000000000600052603260045260246000fd5b602002602001015181526020018a848151811062000361577f4e487b7100000000000000000000000000000000000000000000000000000000600052603260045260246000fd5b60200260200101518152602001898481518110620003a8577f4e487b7100000000000000000000000000000000000000000000000000000000600052603260045260246000fd5b60200260200101518152602001898481518110620003ef577f4e487b7100000000000000000000000000000000000000000000000000000000600052603260045260246000fd5b6020026020010151815260200188848151811062000436577f4e487b7100000000000000000000000000000000000000000000000000000000600052603260045260246000fd5b6020026020010151815250908060018154018082558091505060019003906000526020600020906006020160009091909190915060008201518160000155602082015181600101908051906020019062000492929190620007ed565b506040820151816002019080519060200190620004b1929190620007ed565b50606082015181600301556080820151816004015560a0820151816005015550506000600782815481106200050f577f4e487b7100000000000000000000000000000000000000000000000000000000600052603260045260246000fd5b90600052602060002090600602016040518060c001604052908160008201548152602001600182018054620005449062000e08565b80601f0160208091040260200160405190810160405280929190818152602001828054620005729062000e08565b8015620005c35780601f106200059757610100808354040283529160200191620005c3565b820191906000526020600020905b815481529060010190602001808311620005a557829003601f168201915b50505050508152602001600282018054620005de9062000e08565b80601f01602080910402602001604051908101604052809291908181526020018280546200060c9062000e08565b80156200065d5780601f1062000631576101008083540402835291602001916200065d565b820191906000526020600020905b8154815290600101906020018083116200063f57829003601f168201915b5050505050815260200160038201548152602001600482015481526020016005820154815250509050620006c460405180606001604052806025815260200162005b78602591398260200151836060015184604001516200070260201b62001f0a1760201c565b50600181620006d4919062000d6b565b9050620002c3565b50620006f46006620007ae60201b62001fac1760201c565b505050505050505062000f2c565b620007a8848484846040516024016200071f949392919062000c30565b6040516020818303038152906040527f8d142cdd000000000000000000000000000000000000000000000000000000007bffffffffffffffffffffffffffffffffffffffffffffffffffffffff19166020820180517bffffffffffffffffffffffffffffffffffffffffffffffffffffffff8381831617835250505050620007c460201b60201c565b50505050565b6001816000016000828254019250508190555050565b60008151905060006a636f6e736f6c652e6c6f679050602083016000808483855afa5050505050565b828054620007fb9062000e08565b90600052602060002090601f0160209004810192826200081f57600085556200086b565b82601f106200083a57805160ff19168380011785556200086b565b828001600101855582156200086b579182015b828111156200086a5782518255916020019190600101906200084d565b5b5090506200087a91906200087e565b5090565b5b80821115620008995760008160009055506001016200087f565b5090565b6000620008b4620008ae8462000cbb565b62000c92565b90508083825260208201905082856020860282011115620008d457600080fd5b60005b858110156200092357815167ffffffffffffffff811115620008f857600080fd5b80860162000907898262000a41565b85526020850194506020840193505050600181019050620008d7565b5050509392505050565b6000620009446200093e8462000cea565b62000c92565b905080838252602082019050828560208602820111156200096457600080fd5b60005b858110156200099857816200097d888262000a6e565b84526020840193506020830192505060018101905062000967565b5050509392505050565b6000620009b9620009b38462000d19565b62000c92565b905082815260208101848484011115620009d257600080fd5b620009df84828562000dd2565b509392505050565b600082601f830112620009f957600080fd5b815162000a0b8482602086016200089d565b91505092915050565b600082601f83011262000a2657600080fd5b815162000a388482602086016200092d565b91505092915050565b600082601f83011262000a5357600080fd5b815162000a65848260208601620009a2565b91505092915050565b60008151905062000a7f8162000f12565b92915050565b600080600080600080600080610100898b03121562000aa357600080fd5b600089015167ffffffffffffffff81111562000abe57600080fd5b62000acc8b828c01620009e7565b985050602089015167ffffffffffffffff81111562000aea57600080fd5b62000af88b828c01620009e7565b975050604089015167ffffffffffffffff81111562000b1657600080fd5b62000b248b828c0162000a14565b965050606089015167ffffffffffffffff81111562000b4257600080fd5b62000b508b828c0162000a14565b955050608089015167ffffffffffffffff81111562000b6e57600080fd5b62000b7c8b828c0162000a41565b94505060a089015167ffffffffffffffff81111562000b9a57600080fd5b62000ba88b828c0162000a41565b93505060c062000bbb8b828c0162000a6e565b92505060e062000bce8b828c0162000a6e565b9150509295985092959890939650565b600062000beb8262000d4f565b62000bf7818562000d5a565b935062000c0981856020860162000dd2565b62000c148162000f01565b840191505092915050565b62000c2a8162000dc8565b82525050565b6000608082019050818103600083015262000c4c818762000bde565b9050818103602083015262000c62818662000bde565b905062000c73604083018562000c1f565b818103606083015262000c87818462000bde565b905095945050505050565b600062000c9e62000cb1565b905062000cac828262000e3e565b919050565b6000604051905090565b600067ffffffffffffffff82111562000cd95762000cd862000ed2565b5b602082029050602081019050919050565b600067ffffffffffffffff82111562000d085762000d0762000ed2565b5b602082029050602081019050919050565b600067ffffffffffffffff82111562000d375762000d3662000ed2565b5b62000d428262000f01565b9050602081019050919050565b600081519050919050565b600082825260208201905092915050565b600062000d788262000dc8565b915062000d858362000dc8565b9250827fffffffffffffffffffffffffffffffffffffffffffffffffffffffffffffffff0382111562000dbd5762000dbc62000e74565b5b828201905092915050565b6000819050919050565b60005b8381101562000df257808201518184015260208101905062000dd5565b8381111562000e02576000848401525b50505050565b6000600282049050600182168062000e2157607f821691505b6020821081141562000e385762000e3762000ea3565b5b50919050565b62000e498262000f01565b810181811067ffffffffffffffff8211171562000e6b5762000e6a62000ed2565b5b80604052505050565b7f4e487b7100000000000000000000000000000000000000000000000000000000600052601160045260246000fd5b7f4e487b7100000000000000000000000000000000000000000000000000000000600052602260045260246000fd5b7f4e487b7100000000000000000000000000000000000000000000000000000000600052604160045260246000fd5b6000601f19601f8301169050919050565b62000f1d8162000dc8565b811462000f2957600080fd5b50565b614c3c8062000f3c6000396000f3fe608060405234801561001057600080fd5b50600436106101425760003560e01c806398da4c95116100b8578063c87b56dd1161007c578063c87b56dd14610392578063c8cf27f4146103c2578063d4f24c5b146103e0578063e985e9c5146103ea578063efa1c4821461041a578063f8b81ef71461043857610142565b806398da4c95146102e5578063a22cb4651461031a578063a9c3267914610336578063b88d4fde14610358578063b953084e1461037457610142565b806323b872dd1161010a57806323b872dd146101ff57806342842e0e1461021b5780636352211e1461023757806370a08231146102675780637df124a11461029757806395d89b41146102c757610142565b806301ffc9a7146101475780630665f9611461017757806306fdde0314610195578063081812fc146101b3578063095ea7b3146101e3575b600080fd5b610161600480360381019061015c919061337d565b610454565b60405161016e9190613be2565b60405180910390f35b61017f610536565b60405161018c9190613f7b565b60405180910390f35b61019d610692565b6040516101aa9190613bfd565b60405180910390f35b6101cd60048036038101906101c891906133cf565b610724565b6040516101da9190613b22565b60405180910390f35b6101fd60048036038101906101f89190613341565b6107a9565b005b6102196004803603810190610214919061323b565b6108c1565b005b6102356004803603810190610230919061323b565b610921565b005b610251600480360381019061024c91906133cf565b610941565b60405161025e9190613b22565b60405180910390f35b610281600480360381019061027c91906131d6565b6109f3565b60405161028e9190613fbf565b60405180910390f35b6102b160048036038101906102ac91906131d6565b610aab565b6040516102be9190613fbf565b60405180910390f35b6102cf610ac3565b6040516102dc9190613bfd565b60405180910390f35b6102ff60048036038101906102fa91906133cf565b610b55565b60405161031196959493929190613fda565b60405180910390f35b610334600480360381019061032f9190613305565b610ca1565b005b61033e610cb7565b60405161034f959493929190613ccc565b60405180910390f35b610372600480360381019061036d919061328a565b610deb565b005b61037c610e4d565b6040516103899190613bc0565b60405180910390f35b6103ac60048036038101906103a791906133cf565b610ff8565b6040516103b99190613bfd565b60405180910390f35b6103ca611213565b6040516103d79190613f9d565b60405180910390f35b6103e86113eb565b005b61040460048036038101906103ff91906131ff565b6117fa565b6040516104119190613be2565b60405180910390f35b61042261188e565b60405161042f9190613bc0565b60405180910390f35b610452600480360381019061044d91906133cf565b611b16565b005b60007f80ac58cd000000000000000000000000000000000000000000000000000000007bffffffffffffffffffffffffffffffffffffffffffffffffffffffff1916827bffffffffffffffffffffffffffffffffffffffffffffffffffffffff1916148061051f57507f5b5e139f000000000000000000000000000000000000000000000000000000007bffffffffffffffffffffffffffffffffffffffffffffffffffffffff1916827bffffffffffffffffffffffffffffffffffffffffffffffffffffffff1916145b8061052f575061052e82611fc2565b5b9050919050565b61053e612ffd565b600a6040518060a001604052908160008201805461055b90614320565b80601f016020809104026020016040519081016040528092919081815260200182805461058790614320565b80156105d45780601f106105a9576101008083540402835291602001916105d4565b820191906000526020600020905b8154815290600101906020018083116105b757829003601f168201915b505050505081526020016001820180546105ed90614320565b80601f016020809104026020016040519081016040528092919081815260200182805461061990614320565b80156106665780601f1061063b57610100808354040283529160200191610666565b820191906000526020600020905b81548152906001019060200180831161064957829003601f168201915b505050505081526020016002820154815260200160038201548152602001600482015481525050905090565b6060600080546106a190614320565b80601f01602080910402602001604051908101604052809291908181526020018280546106cd90614320565b801561071a5780601f106106ef5761010080835404028352916020019161071a565b820191906000526020600020905b8154815290600101906020018083116106fd57829003601f168201915b5050505050905090565b600061072f8261202c565b61076e576040517f08c379a000000000000000000000000000000000000000000000000000000000815260040161076590613f1b565b60405180910390fd5b6004600083815260200190815260200160002060009054906101000a900473ffffffffffffffffffffffffffffffffffffffff169050919050565b60006107b482610941565b90508073ffffffffffffffffffffffffffffffffffffffff168373ffffffffffffffffffffffffffffffffffffffff161415610825576040517f08c379a000000000000000000000000000000000000000000000000000000000815260040161081c90613f3b565b60405180910390fd5b8073ffffffffffffffffffffffffffffffffffffffff16610844612098565b73ffffffffffffffffffffffffffffffffffffffff16148061087357506108728161086d612098565b6117fa565b5b6108b2576040517f08c379a00000000000000000000000000000000000000000000000000000000081526004016108a990613e7b565b60405180910390fd5b6108bc83836120a0565b505050565b6108d26108cc612098565b82612159565b610911576040517f08c379a000000000000000000000000000000000000000000000000000000000815260040161090890613f5b565b60405180910390fd5b61091c838383612237565b505050565b61093c83838360405180602001604052806000815250610deb565b505050565b6000806002600084815260200190815260200160002060009054906101000a900473ffffffffffffffffffffffffffffffffffffffff169050600073ffffffffffffffffffffffffffffffffffffffff168173ffffffffffffffffffffffffffffffffffffffff1614156109ea576040517f08c379a00000000000000000000000000000000000000000000000000000000081526004016109e190613ebb565b60405180910390fd5b80915050919050565b60008073ffffffffffffffffffffffffffffffffffffffff168273ffffffffffffffffffffffffffffffffffffffff161415610a64576040517f08c379a0000000000000000000000000000000000000000000000000000000008152600401610a5b90613e9b565b60405180910390fd5b600360008373ffffffffffffffffffffffffffffffffffffffff1673ffffffffffffffffffffffffffffffffffffffff168152602001908152602001600020549050919050565b60096020528060005260406000206000915090505481565b606060018054610ad290614320565b80601f0160208091040260200160405190810160405280929190818152602001828054610afe90614320565b8015610b4b5780601f10610b2057610100808354040283529160200191610b4b565b820191906000526020600020905b815481529060010190602001808311610b2e57829003601f168201915b5050505050905090565b6008602052806000526040600020600091509050806000015490806001018054610b7e90614320565b80601f0160208091040260200160405190810160405280929190818152602001828054610baa90614320565b8015610bf75780601f10610bcc57610100808354040283529160200191610bf7565b820191906000526020600020905b815481529060010190602001808311610bda57829003601f168201915b505050505090806002018054610c0c90614320565b80601f0160208091040260200160405190810160405280929190818152602001828054610c3890614320565b8015610c855780601f10610c5a57610100808354040283529160200191610c85565b820191906000526020600020905b815481529060010190602001808311610c6857829003601f168201915b5050505050908060030154908060040154908060050154905086565b610cb3610cac612098565b838361249e565b5050565b600a806000018054610cc890614320565b80601f0160208091040260200160405190810160405280929190818152602001828054610cf490614320565b8015610d415780601f10610d1657610100808354040283529160200191610d41565b820191906000526020600020905b815481529060010190602001808311610d2457829003601f168201915b505050505090806001018054610d5690614320565b80601f0160208091040260200160405190810160405280929190818152602001828054610d8290614320565b8015610dcf5780601f10610da457610100808354040283529160200191610dcf565b820191906000526020600020905b815481529060010190602001808311610db257829003601f168201915b5050505050908060020154908060030154908060040154905085565b610dfc610df6612098565b83612159565b610e3b576040517f08c379a0000000000000000000000000000000000000000000000000000000008152600401610e3290613f5b565b60405180910390fd5b610e478484848461260b565b50505050565b60606007805480602002602001604051908101604052809291908181526020016000905b82821015610fef57838290600052602060002090600602016040518060c001604052908160008201548152602001600182018054610eae90614320565b80601f0160208091040260200160405190810160405280929190818152602001828054610eda90614320565b8015610f275780601f10610efc57610100808354040283529160200191610f27565b820191906000526020600020905b815481529060010190602001808311610f0a57829003601f168201915b50505050508152602001600282018054610f4090614320565b80601f0160208091040260200160405190810160405280929190818152602001828054610f6c90614320565b8015610fb95780601f10610f8e57610100808354040283529160200191610fb9565b820191906000526020600020905b815481529060010190602001808311610f9c57829003601f168201915b50505050508152602001600382015481526020016004820154815260200160058201548152505081526020019060010190610e71565b50505050905090565b60606000600860008481526020019081526020016000206040518060c00160405290816000820154815260200160018201805461103490614320565b80601f016020809104026020016040519081016040528092919081815260200182805461106090614320565b80156110ad5780601f10611082576101008083540402835291602001916110ad565b820191906000526020600020905b81548152906001019060200180831161109057829003601f168201915b505050505081526020016002820180546110c690614320565b80601f01602080910402602001604051908101604052809291908181526020018280546110f290614320565b801561113f5780601f106111145761010080835404028352916020019161113f565b820191906000526020600020905b81548152906001019060200180831161112257829003601f168201915b505050505081526020016003820154815260200160048201548152602001600582015481525050905060006111778260600151612667565b905060006111888360800151612667565b905060006111998460a00151612667565b905060006111df85602001516111ae89612667565b87604001518787876040516020016111cb96959493929190613a5b565b604051602081830303815290604052612814565b90506000816040516020016111f49190613b00565b6040516020818303038152906040529050809650505050505050919050565b61121b61302c565b6000600960003373ffffffffffffffffffffffffffffffffffffffff1673ffffffffffffffffffffffffffffffffffffffff16815260200190815260200160002054905060008111156113da57600860008281526020019081526020016000206040518060c0016040529081600082015481526020016001820180546112a090614320565b80601f01602080910402602001604051908101604052809291908181526020018280546112cc90614320565b80156113195780601f106112ee57610100808354040283529160200191611319565b820191906000526020600020905b8154815290600101906020018083116112fc57829003601f168201915b5050505050815260200160028201805461133290614320565b80601f016020809104026020016040519081016040528092919081815260200182805461135e90614320565b80156113ab5780601f10611380576101008083540402835291602001916113ab565b820191906000526020600020905b81548152906001019060200180831161138e57829003601f168201915b5050505050815260200160038201548152602001600482015481526020016005820154815250509150506113e8565b6113e261302c565b80925050505b90565b6000600960003373ffffffffffffffffffffffffffffffffffffffff1673ffffffffffffffffffffffffffffffffffffffff16815260200190815260200160002054905060006008600083815260200190815260200160002090506114fe6040518060600160405280603c8152602001614bcb603c913982600101805461147190614320565b80601f016020809104026020016040519081016040528092919081815260200182805461149d90614320565b80156114ea5780601f106114bf576101008083540402835291602001916114ea565b820191906000526020600020905b8154815290600101906020018083116114cd57829003601f168201915b5050505050836003015484600501546129d2565b6115d66040518060400160405280601b81526020017f426f73732025732068617320257320485020616e642025732041440000000000815250600a600001805461154790614320565b80601f016020809104026020016040519081016040528092919081815260200182805461157390614320565b80156115c05780601f10611595576101008083540402835291602001916115c0565b820191906000526020600020905b8154815290600101906020018083116115a357829003601f168201915b5050505050600a60020154600a600401546129d2565b600081600301541161161d576040517f08c379a000000000000000000000000000000000000000000000000000000000815260040161161490613edb565b60405180910390fd5b6000600a6002015411611665576040517f08c379a000000000000000000000000000000000000000000000000000000000815260040161165c90613ddb565b60405180910390fd5b6000606442446116759190614155565b61167f91906143cc565b90506116c06040518060400160405280600681526020017f736565643a20000000000000000000000000000000000000000000000000000081525082612a74565b6000826005015490506000600a600401549050600583116116eb576002826116e891906141dc565b91505b605083106116f857600090505b81600a600201541015611715576000600a60020181905550611730565b81600a600201546117269190614236565b600a600201819055505b808460030154101561174b5760008460030181905550611764565b80846003015461175b9190614236565b84600301819055505b61178b604051806060016040528060258152602001614b1060259139600a60020154612a74565b6117b1604051806060016040528060288152602001614b75602891398560030154612a74565b7f838ab28464562786a6c4ab2311964b82fa60bd9b14aa7e856af1f3f18d41a414600a6002015485600301546040516117eb929190614049565b60405180910390a15050505050565b6000600560008473ffffffffffffffffffffffffffffffffffffffff1673ffffffffffffffffffffffffffffffffffffffff16815260200190815260200160002060008373ffffffffffffffffffffffffffffffffffffffff1673ffffffffffffffffffffffffffffffffffffffff16815260200190815260200160002060009054906101000a900460ff16905092915050565b60606000600161189e6006612b10565b6118a89190614236565b67ffffffffffffffff8111156118e7577f4e487b7100000000000000000000000000000000000000000000000000000000600052604160045260246000fd5b60405190808252806020026020018201604052801561192057816020015b61190d61302c565b8152602001906001900390816119055790505b5090506000600190505b6119346006612b10565b811015611b0e576000600860008381526020019081526020016000209050806040518060c00160405290816000820154815260200160018201805461197890614320565b80601f01602080910402602001604051908101604052809291908181526020018280546119a490614320565b80156119f15780601f106119c6576101008083540402835291602001916119f1565b820191906000526020600020905b8154815290600101906020018083116119d457829003601f168201915b50505050508152602001600282018054611a0a90614320565b80601f0160208091040260200160405190810160405280929190818152602001828054611a3690614320565b8015611a835780601f10611a5857610100808354040283529160200191611a83565b820191906000526020600020905b815481529060010190602001808311611a6657829003601f168201915b50505050508152602001600382015481526020016004820154815260200160058201548152505083600184611ab89190614236565b81518110611aef577f4e487b7100000000000000000000000000000000000000000000000000000000600052603260045260246000fd5b6020026020010181905250508080611b0690614383565b91505061192a565b508091505090565b6000611b226006612b10565b9050611b2e3382612b1e565b6040518060c0016040528083815260200160078481548110611b79577f4e487b7100000000000000000000000000000000000000000000000000000000600052603260045260246000fd5b90600052602060002090600602016001018054611b9590614320565b80601f0160208091040260200160405190810160405280929190818152602001828054611bc190614320565b8015611c0e5780601f10611be357610100808354040283529160200191611c0e565b820191906000526020600020905b815481529060010190602001808311611bf157829003601f168201915b5050505050815260200160078481548110611c52577f4e487b7100000000000000000000000000000000000000000000000000000000600052603260045260246000fd5b90600052602060002090600602016002018054611c6e90614320565b80601f0160208091040260200160405190810160405280929190818152602001828054611c9a90614320565b8015611ce75780601f10611cbc57610100808354040283529160200191611ce7565b820191906000526020600020905b815481529060010190602001808311611cca57829003601f168201915b5050505050815260200160078481548110611d2b577f4e487b7100000000000000000000000000000000000000000000000000000000600052603260045260246000fd5b906000526020600020906006020160030154815260200160078481548110611d7c577f4e487b7100000000000000000000000000000000000000000000000000000000600052603260045260246000fd5b906000526020600020906006020160040154815260200160078481548110611dcd577f4e487b7100000000000000000000000000000000000000000000000000000000600052603260045260246000fd5b90600052602060002090600602016005015481525060086000838152602001908152602001600020600082015181600001556020820151816001019080519060200190611e1b929190613062565b506040820151816002019080519060200190611e38929190613062565b50606082015181600301556080820151816004015560a08201518160050155905050611e7d6040518060600160405280602e8152602001614b9d602e91398284612b3c565b80600960003373ffffffffffffffffffffffffffffffffffffffff1673ffffffffffffffffffffffffffffffffffffffff16815260200190815260200160002081905550611ecb6006611fac565b7f4bc303fd457a97b4691b9af582ce71868a3d258638c8d4f8c60988a0f0bfb8cd338284604051611efe93929190613b89565b60405180910390a15050565b611fa684848484604051602401611f249493929190613c1f565b6040516020818303038152906040527f8d142cdd000000000000000000000000000000000000000000000000000000007bffffffffffffffffffffffffffffffffffffffffffffffffffffffff19166020820180517bffffffffffffffffffffffffffffffffffffffffffffffffffffffff8381831617835250505050612bdb565b50505050565b6001816000016000828254019250508190555050565b60007f01ffc9a7000000000000000000000000000000000000000000000000000000007bffffffffffffffffffffffffffffffffffffffffffffffffffffffff1916827bffffffffffffffffffffffffffffffffffffffffffffffffffffffff1916149050919050565b60008073ffffffffffffffffffffffffffffffffffffffff166002600084815260200190815260200160002060009054906101000a900473ffffffffffffffffffffffffffffffffffffffff1673ffffffffffffffffffffffffffffffffffffffff1614159050919050565b600033905090565b816004600083815260200190815260200160002060006101000a81548173ffffffffffffffffffffffffffffffffffffffff021916908373ffffffffffffffffffffffffffffffffffffffff160217905550808273ffffffffffffffffffffffffffffffffffffffff1661211383610941565b73ffffffffffffffffffffffffffffffffffffffff167f8c5be1e5ebec7d5bd14f71427d1e84f3dd0314c0f7b2291e5b200ac8c7c3b92560405160405180910390a45050565b60006121648261202c565b6121a3576040517f08c379a000000000000000000000000000000000000000000000000000000000815260040161219a90613e5b565b60405180910390fd5b60006121ae83610941565b90508073ffffffffffffffffffffffffffffffffffffffff168473ffffffffffffffffffffffffffffffffffffffff16148061221d57508373ffffffffffffffffffffffffffffffffffffffff1661220584610724565b73ffffffffffffffffffffffffffffffffffffffff16145b8061222e575061222d81856117fa565b5b91505092915050565b8273ffffffffffffffffffffffffffffffffffffffff1661225782610941565b73ffffffffffffffffffffffffffffffffffffffff16146122ad576040517f08c379a00000000000000000000000000000000000000000000000000000000081526004016122a490613dbb565b60405180910390fd5b600073ffffffffffffffffffffffffffffffffffffffff168273ffffffffffffffffffffffffffffffffffffffff16141561231d576040517f08c379a000000000000000000000000000000000000000000000000000000000815260040161231490613e1b565b60405180910390fd5b612328838383612c04565b6123336000826120a0565b6001600360008573ffffffffffffffffffffffffffffffffffffffff1673ffffffffffffffffffffffffffffffffffffffff16815260200190815260200160002060008282546123839190614236565b925050819055506001600360008473ffffffffffffffffffffffffffffffffffffffff1673ffffffffffffffffffffffffffffffffffffffff16815260200190815260200160002060008282546123da9190614155565b92505081905550816002600083815260200190815260200160002060006101000a81548173ffffffffffffffffffffffffffffffffffffffff021916908373ffffffffffffffffffffffffffffffffffffffff160217905550808273ffffffffffffffffffffffffffffffffffffffff168473ffffffffffffffffffffffffffffffffffffffff167fddf252ad1be2c89b69c2b068fc378daa952ba7f163c4a11628f55a4df523b3ef60405160405180910390a4612499838383612c09565b505050565b8173ffffffffffffffffffffffffffffffffffffffff168373ffffffffffffffffffffffffffffffffffffffff16141561250d576040517f08c379a000000000000000000000000000000000000000000000000000000000815260040161250490613e3b565b60405180910390fd5b80600560008573ffffffffffffffffffffffffffffffffffffffff1673ffffffffffffffffffffffffffffffffffffffff16815260200190815260200160002060008473ffffffffffffffffffffffffffffffffffffffff1673ffffffffffffffffffffffffffffffffffffffff16815260200190815260200160002060006101000a81548160ff0219169083151502179055508173ffffffffffffffffffffffffffffffffffffffff168373ffffffffffffffffffffffffffffffffffffffff167f17307eab39ab6107e8899845ad3d59bd9653f200f220920489ca2b5937696c31836040516125fe9190613be2565b60405180910390a3505050565b612616848484612237565b61262284848484612c0e565b612661576040517f08c379a000000000000000000000000000000000000000000000000000000000815260040161265890613d9b565b60405180910390fd5b50505050565b606060008214156126af576040518060400160405280600181526020017f3000000000000000000000000000000000000000000000000000000000000000815250905061280f565b600082905060005b600082146126e15780806126ca90614383565b915050600a826126da91906141ab565b91506126b7565b60008167ffffffffffffffff811115612723577f4e487b7100000000000000000000000000000000000000000000000000000000600052604160045260246000fd5b6040519080825280601f01601f1916602001820160405280156127555781602001600182028036833780820191505090505b5090505b600085146128085760018261276e9190614236565b9150600a8561277d91906143cc565b60306127899190614155565b60f81b8183815181106127c5577f4e487b7100000000000000000000000000000000000000000000000000000000600052603260045260246000fd5b60200101907effffffffffffffffffffffffffffffffffffffffffffffffffffffffffffff1916908160001a905350600a8561280191906141ab565b9450612759565b8093505050505b919050565b6060600082519050600081141561283d57604051806020016040528060008152509150506129cd565b6000600360028361284e9190614155565b61285891906141ab565b600461286491906141dc565b905060006020826128759190614155565b67ffffffffffffffff8111156128b4577f4e487b7100000000000000000000000000000000000000000000000000000000600052604160045260246000fd5b6040519080825280601f01601f1916602001820160405280156128e65781602001600182028036833780820191505090505b5090506000604051806060016040528060408152602001614b35604091399050600181016020830160005b8681101561298a5760038101905062ffffff818a015116603f8160121c168401518060081b905060ff603f83600c1c1686015116810190508060081b905060ff603f8360061c1686015116810190508060081b905060ff603f831686015116810190508060e01b90508084526004840193505050612911565b5060038606600181146129a457600281146129b4576129bf565b613d3d60f01b60028303526129bf565b603d60f81b60018303525b508484525050819450505050505b919050565b612a6e848484846040516024016129ec9493929190613c79565b6040516020818303038152906040527fd5cf17d0000000000000000000000000000000000000000000000000000000007bffffffffffffffffffffffffffffffffffffffffffffffffffffffff19166020820180517bffffffffffffffffffffffffffffffffffffffffffffffffffffffff8381831617835250505050612bdb565b50505050565b612b0c8282604051602401612a8a929190613d2d565b6040516020818303038152906040527f9710a9d0000000000000000000000000000000000000000000000000000000007bffffffffffffffffffffffffffffffffffffffffffffffffffffffff19166020820180517bffffffffffffffffffffffffffffffffffffffffffffffffffffffff8381831617835250505050612bdb565b5050565b600081600001549050919050565b612b38828260405180602001604052806000815250612da5565b5050565b612bd6838383604051602401612b5493929190613d5d565b6040516020818303038152906040527f969cdd03000000000000000000000000000000000000000000000000000000007bffffffffffffffffffffffffffffffffffffffffffffffffffffffff19166020820180517bffffffffffffffffffffffffffffffffffffffffffffffffffffffff8381831617835250505050612bdb565b505050565b60008151905060006a636f6e736f6c652e6c6f679050602083016000808483855afa5050505050565b505050565b505050565b6000612c2f8473ffffffffffffffffffffffffffffffffffffffff16612e00565b15612d98578373ffffffffffffffffffffffffffffffffffffffff1663150b7a02612c58612098565b8786866040518563ffffffff1660e01b8152600401612c7a9493929190613b3d565b602060405180830381600087803b158015612c9457600080fd5b505af1925050508015612cc557506040513d601f19601f82011682018060405250810190612cc291906133a6565b60015b612d48573d8060008114612cf5576040519150601f19603f3d011682016040523d82523d6000602084013e612cfa565b606091505b50600081511415612d40576040517f08c379a0000000000000000000000000000000000000000000000000000000008152600401612d3790613d9b565b60405180910390fd5b805181602001fd5b63150b7a0260e01b7bffffffffffffffffffffffffffffffffffffffffffffffffffffffff1916817bffffffffffffffffffffffffffffffffffffffffffffffffffffffff191614915050612d9d565b600190505b949350505050565b612daf8383612e23565b612dbc6000848484612c0e565b612dfb576040517f08c379a0000000000000000000000000000000000000000000000000000000008152600401612df290613d9b565b60405180910390fd5b505050565b6000808273ffffffffffffffffffffffffffffffffffffffff163b119050919050565b600073ffffffffffffffffffffffffffffffffffffffff168273ffffffffffffffffffffffffffffffffffffffff161415612e93576040517f08c379a0000000000000000000000000000000000000000000000000000000008152600401612e8a90613efb565b60405180910390fd5b612e9c8161202c565b15612edc576040517f08c379a0000000000000000000000000000000000000000000000000000000008152600401612ed390613dfb565b60405180910390fd5b612ee860008383612c04565b6001600360008473ffffffffffffffffffffffffffffffffffffffff1673ffffffffffffffffffffffffffffffffffffffff1681526020019081526020016000206000828254612f389190614155565b92505081905550816002600083815260200190815260200160002060006101000a81548173ffffffffffffffffffffffffffffffffffffffff021916908373ffffffffffffffffffffffffffffffffffffffff160217905550808273ffffffffffffffffffffffffffffffffffffffff16600073ffffffffffffffffffffffffffffffffffffffff167fddf252ad1be2c89b69c2b068fc378daa952ba7f163c4a11628f55a4df523b3ef60405160405180910390a4612ff960008383612c09565b5050565b6040518060a0016040528060608152602001606081526020016000815260200160008152602001600081525090565b6040518060c001604052806000815260200160608152602001606081526020016000815260200160008152602001600081525090565b82805461306e90614320565b90600052602060002090601f01602090048101928261309057600085556130d7565b82601f106130a957805160ff19168380011785556130d7565b828001600101855582156130d7579182015b828111156130d65782518255916020019190600101906130bb565b5b5090506130e491906130e8565b5090565b5b808211156131015760008160009055506001016130e9565b5090565b600061311861311384614097565b614072565b90508281526020810184848401111561313057600080fd5b61313b8482856142de565b509392505050565b60008135905061315281614ab3565b92915050565b60008135905061316781614aca565b92915050565b60008135905061317c81614ae1565b92915050565b60008151905061319181614ae1565b92915050565b600082601f8301126131a857600080fd5b81356131b8848260208601613105565b91505092915050565b6000813590506131d081614af8565b92915050565b6000602082840312156131e857600080fd5b60006131f684828501613143565b91505092915050565b6000806040838503121561321257600080fd5b600061322085828601613143565b925050602061323185828601613143565b9150509250929050565b60008060006060848603121561325057600080fd5b600061325e86828701613143565b935050602061326f86828701613143565b9250506040613280868287016131c1565b9150509250925092565b600080600080608085870312156132a057600080fd5b60006132ae87828801613143565b94505060206132bf87828801613143565b93505060406132d0878288016131c1565b925050606085013567ffffffffffffffff8111156132ed57600080fd5b6132f987828801613197565b91505092959194509250565b6000806040838503121561331857600080fd5b600061332685828601613143565b925050602061333785828601613158565b9150509250929050565b6000806040838503121561335457600080fd5b600061336285828601613143565b9250506020613373858286016131c1565b9150509250929050565b60006020828403121561338f57600080fd5b600061339d8482850161316d565b91505092915050565b6000602082840312156133b857600080fd5b60006133c684828501613182565b91505092915050565b6000602082840312156133e157600080fd5b60006133ef848285016131c1565b91505092915050565b6000613404838361391d565b905092915050565b6134158161426a565b82525050565b6000613426826140d8565b6134308185614106565b935083602082028501613442856140c8565b8060005b8581101561347e578484038952815161345f85826133f8565b945061346a836140f9565b925060208a01995050600181019050613446565b50829750879550505050505092915050565b6134998161427c565b82525050565b60006134aa826140e3565b6134b48185614117565b93506134c48185602086016142ed565b6134cd816144b9565b840191505092915050565b60006134e3826140ee565b6134ed8185614128565b93506134fd8185602086016142ed565b613506816144b9565b840191505092915050565b600061351c826140ee565b6135268185614139565b93506135368185602086016142ed565b61353f816144b9565b840191505092915050565b6000613555826140ee565b61355f818561414a565b935061356f8185602086016142ed565b80840191505092915050565b6000613588600b8361414a565b9150613593826144ca565b600b82019050919050565b60006135ab603283614139565b91506135b6826144f3565b604082019050919050565b60006135ce602583614139565b91506135d982614542565b604082019050919050565b60006135f1602883614139565b91506135fc82614591565b604082019050919050565b6000613614601c83614139565b915061361f826145e0565b602082019050919050565b6000613637600e8361414a565b915061364282614609565b600e82019050919050565b600061365a602483614139565b915061366582614632565b604082019050919050565b600061367d601983614139565b915061368882614681565b602082019050919050565b60006136a0602c83614139565b91506136ab826146aa565b604082019050919050565b60006136c3603883614139565b91506136ce826146f9565b604082019050919050565b60006136e6602a83614139565b91506136f182614748565b604082019050919050565b6000613709602983614139565b915061371482614797565b604082019050919050565b600061372c602d83614139565b9150613737826147e6565b604082019050919050565b600061374f60048361414a565b915061375a82614835565b600482019050919050565b600061377260378361414a565b915061377d8261485e565b603782019050919050565b6000613795602083614139565b91506137a0826148ad565b602082019050919050565b60006137b8602c83614139565b91506137c3826148d6565b604082019050919050565b60006137db600a8361414a565b91506137e682614925565b600a82019050919050565b60006137fe602183614139565b91506138098261494e565b604082019050919050565b6000613821601d8361414a565b915061382c8261499d565b601d82019050919050565b6000613844603183614139565b915061384f826149c6565b604082019050919050565b6000613867603d8361414a565b915061387282614a15565b603d82019050919050565b600061388a602d8361414a565b915061389582614a64565b602d82019050919050565b600060a08301600083015184820360008601526138bd82826134d8565b915050602083015184820360208601526138d782826134d8565b91505060408301516138ec6040860182613a3d565b5060608301516138ff6060860182613a3d565b5060808301516139126080860182613a3d565b508091505092915050565b600060c0830160008301516139356000860182613a3d565b506020830151848203602086015261394d82826134d8565b9150506040830151848203604086015261396782826134d8565b915050606083015161397c6060860182613a3d565b50608083015161398f6080860182613a3d565b5060a08301516139a260a0860182613a3d565b508091505092915050565b600060c0830160008301516139c56000860182613a3d565b50602083015184820360208601526139dd82826134d8565b915050604083015184820360408601526139f782826134d8565b9150506060830151613a0c6060860182613a3d565b506080830151613a1f6080860182613a3d565b5060a0830151613a3260a0860182613a3d565b508091505092915050565b613a46816142d4565b82525050565b613a55816142d4565b82525050565b6000613a66826137ce565b9150613a72828961354a565b9150613a7d8261357b565b9150613a89828861354a565b9150613a9482613765565b9150613aa0828761354a565b9150613aab8261385a565b9150613ab7828661354a565b9150613ac28261362a565b9150613ace828561354a565b9150613ad98261387d565b9150613ae5828461354a565b9150613af082613742565b9150819050979650505050505050565b6000613b0b82613814565b9150613b17828461354a565b915081905092915050565b6000602082019050613b37600083018461340c565b92915050565b6000608082019050613b52600083018761340c565b613b5f602083018661340c565b613b6c6040830185613a4c565b8181036060830152613b7e818461349f565b905095945050505050565b6000606082019050613b9e600083018661340c565b613bab6020830185613a4c565b613bb86040830184613a4c565b949350505050565b60006020820190508181036000830152613bda818461341b565b905092915050565b6000602082019050613bf76000830184613490565b92915050565b60006020820190508181036000830152613c178184613511565b905092915050565b60006080820190508181036000830152613c398187613511565b90508181036020830152613c4d8186613511565b9050613c5c6040830185613a4c565b8181036060830152613c6e8184613511565b905095945050505050565b60006080820190508181036000830152613c938187613511565b90508181036020830152613ca78186613511565b9050613cb66040830185613a4c565b613cc36060830184613a4c565b95945050505050565b600060a0820190508181036000830152613ce68188613511565b90508181036020830152613cfa8187613511565b9050613d096040830186613a4c565b613d166060830185613a4c565b613d236080830184613a4c565b9695505050505050565b60006040820190508181036000830152613d478185613511565b9050613d566020830184613a4c565b9392505050565b60006060820190508181036000830152613d778186613511565b9050613d866020830185613a4c565b613d936040830184613a4c565b949350505050565b60006020820190508181036000830152613db48161359e565b9050919050565b60006020820190508181036000830152613dd4816135c1565b9050919050565b60006020820190508181036000830152613df4816135e4565b9050919050565b60006020820190508181036000830152613e1481613607565b9050919050565b60006020820190508181036000830152613e348161364d565b9050919050565b60006020820190508181036000830152613e5481613670565b9050919050565b60006020820190508181036000830152613e7481613693565b9050919050565b60006020820190508181036000830152613e94816136b6565b9050919050565b60006020820190508181036000830152613eb4816136d9565b9050919050565b60006020820190508181036000830152613ed4816136fc565b9050919050565b60006020820190508181036000830152613ef48161371f565b9050919050565b60006020820190508181036000830152613f1481613788565b9050919050565b60006020820190508181036000830152613f34816137ab565b9050919050565b60006020820190508181036000830152613f54816137f1565b9050919050565b60006020820190508181036000830152613f7481613837565b9050919050565b60006020820190508181036000830152613f9581846138a0565b905092915050565b60006020820190508181036000830152613fb781846139ad565b905092915050565b6000602082019050613fd46000830184613a4c565b92915050565b600060c082019050613fef6000830189613a4c565b81810360208301526140018188613511565b905081810360408301526140158187613511565b90506140246060830186613a4c565b6140316080830185613a4c565b61403e60a0830184613a4c565b979650505050505050565b600060408201905061405e6000830185613a4c565b61406b6020830184613a4c565b9392505050565b600061407c61408d565b90506140888282614352565b919050565b6000604051905090565b600067ffffffffffffffff8211156140b2576140b161448a565b5b6140bb826144b9565b9050602081019050919050565b6000819050602082019050919050565b600081519050919050565b600081519050919050565b600081519050919050565b6000602082019050919050565b600082825260208201905092915050565b600082825260208201905092915050565b600082825260208201905092915050565b600082825260208201905092915050565b600081905092915050565b6000614160826142d4565b915061416b836142d4565b9250827fffffffffffffffffffffffffffffffffffffffffffffffffffffffffffffffff038211156141a05761419f6143fd565b5b828201905092915050565b60006141b6826142d4565b91506141c1836142d4565b9250826141d1576141d061442c565b5b828204905092915050565b60006141e7826142d4565b91506141f2836142d4565b9250817fffffffffffffffffffffffffffffffffffffffffffffffffffffffffffffffff048311821515161561422b5761422a6143fd565b5b828202905092915050565b6000614241826142d4565b915061424c836142d4565b92508282101561425f5761425e6143fd565b5b828203905092915050565b6000614275826142b4565b9050919050565b60008115159050919050565b60007fffffffff0000000000000000000000000000000000000000000000000000000082169050919050565b600073ffffffffffffffffffffffffffffffffffffffff82169050919050565b6000819050919050565b82818337600083830152505050565b60005b8381101561430b5780820151818401526020810190506142f0565b8381111561431a576000848401525b50505050565b6000600282049050600182168061433857607f821691505b6020821081141561434c5761434b61445b565b5b50919050565b61435b826144b9565b810181811067ffffffffffffffff8211171561437a5761437961448a565b5b80604052505050565b600061438e826142d4565b91507fffffffffffffffffffffffffffffffffffffffffffffffffffffffffffffffff8214156143c1576143c06143fd565b5b600182019050919050565b60006143d7826142d4565b91506143e2836142d4565b9250826143f2576143f161442c565b5b828206905092915050565b7f4e487b7100000000000000000000000000000000000000000000000000000000600052601160045260246000fd5b7f4e487b7100000000000000000000000000000000000000000000000000000000600052601260045260246000fd5b7f4e487b7100000000000000000000000000000000000000000000000000000000600052602260045260246000fd5b7f4e487b7100000000000000000000000000000000000000000000000000000000600052604160045260246000fd5b6000601f19601f8301169050919050565b7f202d2d204e465420233a20000000000000000000000000000000000000000000600082015250565b7f4552433732313a207472616e7366657220746f206e6f6e20455243373231526560008201527f63656976657220696d706c656d656e7465720000000000000000000000000000602082015250565b7f4552433732313a207472616e736665722066726f6d20696e636f72726563742060008201527f6f776e6572000000000000000000000000000000000000000000000000000000602082015250565b7f4572726f723a20626f7373206d757374206861766520485020746f206174746160008201527f636b20626f73732e000000000000000000000000000000000000000000000000602082015250565b7f4552433732313a20746f6b656e20616c7265616479206d696e74656400000000600082015250565b7f2c20226d61785f76616c7565223a000000000000000000000000000000000000600082015250565b7f4552433732313a207472616e7366657220746f20746865207a65726f2061646460008201527f7265737300000000000000000000000000000000000000000000000000000000602082015250565b7f4552433732313a20617070726f766520746f2063616c6c657200000000000000600082015250565b7f4552433732313a206f70657261746f7220717565727920666f72206e6f6e657860008201527f697374656e7420746f6b656e0000000000000000000000000000000000000000602082015250565b7f4552433732313a20617070726f76652063616c6c6572206973206e6f74206f7760008201527f6e6572206e6f7220617070726f76656420666f7220616c6c0000000000000000602082015250565b7f4552433732313a2062616c616e636520717565727920666f7220746865207a6560008201527f726f206164647265737300000000000000000000000000000000000000000000602082015250565b7f4552433732313a206f776e657220717565727920666f72206e6f6e657869737460008201527f656e7420746f6b656e0000000000000000000000000000000000000000000000602082015250565b7f4572726f723a20636861726163746572206d757374206861766520485020746f60008201527f2061747461636b20626f73732e00000000000000000000000000000000000000602082015250565b7f7d205d7d00000000000000000000000000000000000000000000000000000000600082015250565b7f222c20226465736372697074696f6e223a2022416e204e46542064617461206760008201527f616d65222c2022696d616765223a2022697066733a2f2f000000000000000000602082015250565b7f4552433732313a206d696e7420746f20746865207a65726f2061646472657373600082015250565b7f4552433732313a20617070726f76656420717565727920666f72206e6f6e657860008201527f697374656e7420746f6b656e0000000000000000000000000000000000000000602082015250565b7f7b226e616d65223a202200000000000000000000000000000000000000000000600082015250565b7f4552433732313a20617070726f76616c20746f2063757272656e74206f776e6560008201527f7200000000000000000000000000000000000000000000000000000000000000602082015250565b7f646174613a6170706c69636174696f6e2f6a736f6e3b6261736536342c000000600082015250565b7f4552433732313a207472616e736665722063616c6c6572206973206e6f74206f60008201527f776e6572206e6f7220617070726f766564000000000000000000000000000000602082015250565b7f222c202261747472696275746573223a205b207b202274726169745f7479706560008201527f223a20224865616c746820506f696e7473222c202276616c7565223a20000000602082015250565b7f7d2c207b202274726169745f74797065223a202241747461636b2044616d616760008201527f65222c202276616c7565223a2000000000000000000000000000000000000000602082015250565b614abc8161426a565b8114614ac757600080fd5b50565b614ad38161427c565b8114614ade57600080fd5b50565b614aea81614288565b8114614af557600080fd5b50565b614b01816142d4565b8114614b0c57600080fd5b5056fe506c617965722061747461636b656420626f73732e204e657720626f73732068703a2025734142434445464748494a4b4c4d4e4f505152535455565758595a6162636465666768696a6b6c6d6e6f707172737475767778797a303132333435363738392b2f426f73732061747461636b656420706c617965722e204e657720706c617965722068703a2025730a4d696e746564204e465420772f20746f6b656e496420257320616e6420636861726163746572496e6465782025730a506c6179657220772f206368617261637465722025732061626f757420746f2061747461636b2e2048617320257320485020616e64202573204144a2646970667358221220a22401a17e02b79e421cfa5f03126e20709e44f13740c41f14194f82f341473464736f6c63430008040033446f6e6520696e697469616c697a696e6720257320772f2048502025732c20696d67202573446f6e6520696e697469616c697a696e6720626f737320257320772f2048502025732c20696d67202573",
  "linkReferences": {},
  "deployedLinkReferences": {}
}